:03000000020B4AA6
:0C0B4A00787FE4F6D8FD758120020B9145
:10135400C2AF1212F11213CC1213761211ABD2AF28
:011364002266
:1012AB007FF47E0112128D121354121392121251EB
:0812BB00120FA61211F280FBD4
:10125100E4FFFE7D507C00ED1D70011CED4C70F72C
:0D126100B2B40FBF00010EBE02E9BF58E697
:01126E00225D
:0C139200C2B57FF47E0112128DD2B5228C
:10126F00C2B57FFA7E0012128DD2B57FFA7E0012C0
:0E127F00128DC2B57FFA7E0012128DD2B522FA
:0613C600201210010000DE
:100C6000861BFFFFFFFFFFFF900B0000000000004E
:100C700000000000000000000000902100000000C3
:100C80000000FF078069000000000000810900816A
:0C0C90000A028132008233000081310131
:0613C0001212510213920B
:0313D20002126F95
:0A1095007800EBF208EAF208E9F235
:10109F00087C007DFE7BFF7A1379C67E007F0612E7
:1010AF0000F67800E2FB08E2FA08E2F8AC02AD03C2
:0D10BF007BFE7A0079037E007F060200F6BA
:100E6200900001120135FF12011C2F2402788FF22B
:100E7200788CEBF208EAF208E9F27FFC121384782C
:100E82009074FCF2E408F2788FE2FF7891E2C39F5B
:100E92005035788CE2FB08E2FA08E2F912011CFFF5
:100EA2001213847890E2FF788CE2FB0808E2F924BE
:100EB20001F218E2FA3400F212011CFEEF6E789091
:0E0EC200F208E204F280C07890E2FF0213848E
:0B13AA00E47853F27855F27854F222F8
:0B13B50090000574AA1201747F012251
:100A2000788CEBF208EAF208E9F27BFE7A00790BA7
:100A30007F26120CE6EF601F7BFE7A00790B7F2683
:100A4000120CE6EF6011788CE2FB08E2FA08E2F99A
:100A50009000047409801B7BFE7A00790D1208E275
:100A6000EF788C602FE2FB08E2FA08E2F9900004CC
:100A7000740A120174900001120135FF7E007D009E
:100A8000E92405F9E43AFA12021A7833E4F2080488
:100A9000F27F0022E2FB08E2FA08E22405F9E43AD8
:100AA000A801FCAD037BFE7A00790D7E007F041265
:090AB00000F678327401F2FF2215
:0A042A00788CEBF208EAF208E9F220
:10043400900001740712017490000512013578953B
:10044400F2540364036012788CE2FB08E2FA08E2D7
:10045400F9900004740C0205517BFE7A00790B7F3D
:1004640026120CE6EF60207BFE7A00790B7F2612C1
:100474000CE6EF6012788CE2FB08E2FA08E2F990ED
:10048400000474090205517BFE7A00790D1208E21A
:10049400EF6012788CE2FB08E2FA08E2F9900004BB
:1004A400740A0205517BFE7A00790D120981EF600E
:1004B40012788CE2FB08E2FA08E2F9900004740B6B
:1004C400020551788CE2FB08E2FA08E22406F9E41A
:1004D4003AFAC001087C007DFED0017E007F06123E
:1004E40000F67895E2FD78AB74FEF2087400F20829
:1004F400740DF27BFE7A00798F7F60120ED0EF606C
:1005040011788CE2FB08E2FA08E2F9900004740422
:10051400803B788CE2FB08E2FA08E2240CF9E43A26
:10052400FA78217C007DFE7E007F061200F6789525
:10053400E2FF7BFE7A007921120AB9EF602C788CF5
:10054400E2FB08E2FA08E2F990000474061201746E
:100554007E007F067D00E92406F9E43AFA12021AC5
:100564007833E4F20804F27F00227E007F067D00E7
:10057400788CE2FB08E2FA08E22406F9E43AFA127B
:08058400021A78327401F2FF43
:01058C00224C
:0A058D00788CEBF208EAF208E9F2BC
:10059700900001741712017490000512013578A5B7
:1005A700F27BFE7A00790B7F26120CE6EF60207B48
:1005B700FE7A00790B7F26120CE6EF6012788CE248
:1005C700FB08E2FA08E2F9900004740902069C7B32
:1005D700FE7A00790D1208E2EF6012788CE2FB08D0
:1005E700E2FA08E2F9900004740A02069C7BFE7A9C
:1005F70000790D120981EF6012788CE2FB08E2FAAC
:1006070008E2F9900004740B02069C788CE2FB0860
:10061700E2FA08E22406F9E43AFA789F7C007DFEC4
:100627007E007F061200F678A5E2FD78AB74FEF235
:10063700087400F208740DF27BFE7A00799F7F60E0
:10064700120ED0EF6011788CE2FB08E2FA08E2F9AB
:100657009000047404803E788CE2FB08E2FA08E21A
:10066700240CF9E43AFAC001087C007DFED0017E33
:10067700007F101200F678A5E2FF7BFE7A00798FE3
:10068700120AB9EF602C788CE2FB08E2FA08E2F96B
:1006970090000474061201747E007F107D00E92427
:1006A70006F9E43AFA12021A7833E4F20804F27F00
:0806B700002278327401F2FF09
:0106BF002218
:0A06C000788CEBF208EAF208E9F288
:1006CA00900001741112017490000512013578A589
:1006DA00F27BFE7A00790B7F26120CE6EF60207B14
:1006EA00FE7A00790B7F26120CE6EF6012788CE214
:1006FA00FB08E2FA08E2F990000474090207AF7BEA
:10070A00FE7A00790D1208E2EF6012788CE2FB089B
:10071A00E2FA08E2F9900004740A0207AF7BFE7A53
:10072A0000790D120981EF6011788CE2FB08E2FA78
:10073A0008E2F9900004740B806B788CE2FB08E203
:10074A00FA08E22406F9E43AFA789F7C007DFE7EF4
:10075A00007F061200F678A5E2FD78AB74FEF20877
:10076A007400F208740DF27BFE7A00799F7F6012A2
:10077A000ED0EF6011788CE2FB08E2FA08E2F990F9
:10078A0000047404801F78A5E2FF7BFE7A00798F4B
:10079A00120BD6EF788C602AE2FB08E2FA08E2F93B
:1007AA0090000474051201747E007F107D00E92414
:1007BA0006F9E43AFA12021A7833E4F20804F27FEC
:1007CA000022E2FB08E2FA08E22406F9E43AA80168
:1007DA00FCAD037BFE7A00798F7E007F101200F653
:0607EA0078327401F2FFF9
:0107F00022E6
:1007F1007FFE7854E2640160030208E1788974FEA7
:10080100F2087400F2087456F27889E2FB08E2FA01
:1008110008E2F9900001120135FE12011C2E240399
:10082100FEE4FDEE14FCEDC39C500A74562DF8E273
:100831006FFF0D80EE74552EF8E26F60157889E236
:10084100FB08E2FA08E2F990000474031201740251
:1008510008DB7889E2FB08E2FA08E2F9900002126B
:1008610001961201ED087E0002088300030892013F
:100871001008A1012008B00130000008BF1213B513
:10088100804E7889E2FB08E2FA08E2F9120A208038
:100891003F7889E2FB08E2FA08E2F912042A803083
:1008A1007889E2FB08E2FA08E2F91206C0802178B1
:1008B10089E2FB08E2FA08E2F912058D80127889D3
:1008C100E2FB08E2FA08E2F99000047402120174F2
:1008D1007889E2FB08E2FA08E2F9120E621213AA21
:0108E10022F4
:1011F2001207F17832E26005E4F21213C07834E2A9
:10120200700218E26009E47833F208F21213D22273
:1010510020D2D7BFD8CAB5D1E9CAD2524649442015
:10106100002020202020202020202020202020209F
:10107100200020202020202020202020202020208F
:10108100202000202020202020202020202020207F
:0410910020202000FB
:041187007F057E0062
:0A118B00EF1FAC0670011E4C60154A
:10119500E47889F27889E2C394FA50EA0000000005
:0511A500E204F280EFFE
:0111AA002222
:07139E008F801213A5D2A0FD
:0513A500000000002221
:10131C00C2A2D2A1D2A01213A5E580339200C2A022
:02132C00A2001D
:01132E00229C
:10132F0012131C40FBC2A2C2A1C2A0000012139E46
:03133F00C2A02227
:1013650012131C40FBD2A2C2A1C2A012139EC2A09E
:011375002255
:1011AB007F3612132F1211877F3012132F121187D4
:1011BB007F0C12132F1211877F0112132F7F057EC5
:0411CB000002118B82
:1011CF00EF70047F808016EFB401047F90800EEFE4
:1011DF00B402047F888006EFB403027F98EF2DFFDF
:0311EF0002132FB9
:100FA600E4FDFF1211CFE4FEEE90105193FF6006B0
:100FB6001213650E80F2E4FD7F011211CFE4FEEEFE
:100FC60090106293FF60061213650E80F2E4FD7FB7
:100FD600021211CFE4FEEE90107393FF6006121317
:100FE600650E80F2E4FD7F031211CFE4FEEE901051
:0B0FF6008493FF60061213650E80F26A
:0110010022CC
:10000E00E4FDFCC3ED9FEC9E500A0000000DBD0008
:04001E00010C80EF62
:0100220022BB
:1012C300E4FFFEEF25E0FFC2A630A4034401FFD2F2
:0612D300A60EEEB408EDCA
:0112D90022F2
:10121200E4FEEF30E704D2A58002C2A50000C2A618
:0F1222000000D2A60000EF25E0FF0EEEB408E3B7
:01123100229A
:10130700E4FEC2A7EF25E0547E4480FF12121212BA
:0413170012C3D2A784
:01131B0022AF
:1010FE0012111A7D1E7F2D12111AE4FD7F2C121172
:0C110E001A7D8D7F2A12111A7D3E7F2B66
:10111A00C2A7EF25E0547EFF121212AF0512121277
:02112A00D2A74A
:01112C0022A0
:0512DA00F27D087F0811
:0212DF00AC075A
:1012E100E4FE121307AE07AF04EDF45EFD02111A1E
:0E1232001212DFE4FD7F0112111A7D807F0A87
:02124000AC07F9
:0F124200E4FE121307AE07AF04ED4EFD02111AC2
:060D67007BFE7A0079AB6F
:0D0D6D0078BEEBF208EAF208E9F208EDF2B8
:100D7A007D047F05121232E4FC78C1E2FFECC39FC6
:100D8A00501B78BEE2FB08E2FA08E2F98C8275830E
:100D9A0000120135FD7F0912111A0C80DC7D037FD8
:100DAA000112111A7CFF7F051213071CEC6004EF75
:100DBA0030E2F37F2212130778C2E2FB08E2FA0854
:100DCA00E2F9EF1201627F2112130778C2E2FB08EF
:0C0DDA00E2FA08E2F9900001EF02017457
:1002460078C6F20874FEF2087400F20874ABF2087D
:1002560074FEF2087400F20874A9F27A0079AB7B96
:03026600FE7F0C0C
:0E02690078C3EBF208EAF208E9F278C2EFF28D
:1002770078CD74FEF2E408F208F2EF24F4600F245C
:10028700FE701478CE7412F2087410F2800978CEDA
:100297007477F2087430F278CEE24480FD7F021260
:1002A700111A7D807F04121232E478D1F208F278B5
:1002B700C6E2FF78D1E2FC08E2FDC39FEC94005050
:1002C7002478C3E2FB08E2FA08E2F98D828C8312F4
:1002D7000135FD7F0912111A78D2E22401F218E2E2
:1002E7003400F280CA78C2E2FD7F0112111AE2B42B
:1002F7000C077D807F0D12124078D17407F20874C5
:10030700D0F27F0412130778D0EFF278D2E224FFFD
:10031700F218E234FFF208E2700218E2600E78D0B9
:10032700E2FF20E00718E2FEEF5E60D67D807F0DDA
:100337001212DF78D2E2700218E270030204177F0C
:1003470006121307EF541B600302041278CDF2085C
:10035700E2FF78D0E25F30E00578CD74FFF278C233
:10036700E2640C60030204177F0A12130778D0EFC8
:10037700F27F0C121307EF5407FD6025E224FFFFFD
:10038700E434FFFEEF7803C333CE33CED8F97C00D5
:100397002DFFEC3EF978CAE2FB08E2FA08E2C980D1
:1003A7001478D0E275F008A4FF78CAE2FB08E2FAF5
:1003B70008E2F9E5F08FF01201CE78D0E27002047E
:1003C700F278D0E2D3941240037412F2E478D1F2B7
:1003D70008F278D0E2FFC378D2E29F18E294005087
:1003E7002F7F0912130778C7E2FB08E2FA08E2F940
:1003F70078D1E2FC08E2F5828C83EF12017478D29F
:10040700E22401F218E23400F280C778CD74FEF2DC
:100417007D807F0C121240E4FD7F0112111A78CD06
:02042700E2FFF2
:0104290022B0
:0C0CE60078A6EFF208EBF208EAF208E949
:100CF2001212DA7D077F0D12111A7D037F14121270
:100D02004078A6E278ACF278C67401F20874FEF27A
:100D1200087400F20874ACF20874FEF2087400F26F
:100D22000874AAF27A0079AC120265EF703478ABDB
:100D3200E26410700218E2702978ACE2FE78A7E251
:100D4200FB08E2FA08E2F9EE12016278ADE2FE78FF
:100D5200A7E2FB08E2FA08E2F9900001EE12017440
:040D620080027FFE8E
:010D6600226A
:0A08E20078A6EBF208EAF208E9F24A
:1008EC00E478AA1212DAE4FD7F0D12111A7D807FD2
:1008FC000E1212DF78AD7493F2087420F278C6747D
:10090C0002F20874FEF2087400F20874ADF2087476
:10091C00FEF2087400F20874ABF27BFE7A0079AD3B
:10092C007F0C12026978A9EFF2703EFF74AD2FF8BC
:10093C00E2FE78A6E2FB08E2FA08E2F98F82758300
:10094C0000EE12017478AAE2FE74AD2FF8E2FDEE0F
:10095C006D78AAF20FEFB404D374AD2FF8E2FF78E0
:10096C00AAE26F60041874FEF27D807F0E121240B2
:04097C0078A9E2FF75
:010980002254
:0A09810078A6EBF208EAF208E9F2AA
:10098B0078AB7493F2087470F2E478B1F2FF78A646
:10099B00E2FB08E2FA08E2F98F8275830012013557
:1009AB00FE74AD2FF8EEF278B1E2FE8F8275830004
:1009BB00120135FDEE6D78B1F20FEFB404D078C2B1
:1009CB0074FEF2087400F20874B2F27BFE7A0079BE
:1009DB00AB7D07120D6D1212DB78C67409F2087429
:1009EB00FEF2087400F20874ABF20874FEF208749D
:1009FB0000F20874A9F27BFE7A0079AB7F0C12022D
:100A0B0069EF700E78AAE26418700218E27003FFA7
:040A1B0080027FFED8
:010A1F0022B4
:100ED00078B0EFF208EDF2C001087C007DFED00191
:100EE0007E007F061200F678B87C007DFEC0007898
:100EF000ABE2FB08E2FA08E2F9D0007E007F0412C0
:100F000000F678C6740CF20874FEF2087400F20859
:100F100074B0F20874FEF2087400F20874AEF27B4A
:100F2000FE7A0079B07F0E120269AD07ED70097F7D
:0C0F300008121307EF20E3027DFEAF055E
:010F3C002292
:0A0BD60078A6EBF208EAF208E9F253
:100BE00078AC7430F208EFF278C274FEF208740048
:100BF000F20874AEF27BFE7A0079AC7D02120D6DC4
:100C000078C67404F20874FEF2087400F20874AC3A
:100C1000F20874FEF2087400F20874AAF27BFE7AFD
:100C20000079AC7F0C12026978A9EFF2702878ABDA
:100C3000E26490700218E2701D78A6E2FB08E2FA06
:100C400008E2F8AC02AD037BFE7A0079AC7E007F4F
:0F0C5000101200F6800578A974FEF278A9E2FF71
:010C5F002272
:0A0AB90078A6EBF208EAF208E9F271
:100AC30078AB74A0F208EFF278C274FEF2087400F7
:100AD300F20874ADF27D02120D677404120246EF40
:100AE300701478AAE26404700218E2700978ABE229
:100AF300540F640A60027FFEEF704B78AB7C007D7D
:100B0300FEC00078A6E2FB08E2FA08E2F9D0007E14
:100B1300007F101200F678C274FEF2087400F20827
:100B230074BBF27D10120D677412120246EF70143B
:100B330078AAE26404700218E2700978ABE2540FF9
:060B4300640A60027FFE5F
:010B49002289
:1010020078387450F2E408F278C274FEF208740080
:10101200F208743AF27BFE7A0079387D02120D6D85
:1010220078C67404F20874FEF2087400F208743888
:10103200F20874FEF2087400F2087436F27BFE7A4B
:0E1042000079387F0C1202697835EFF27F00DA
:01105000227D
:1010CC00D2A37F0A7E0012000EC2A312000ED2A37E
:1010DC0012000E7D0F7F0112111A7F0A7E00120082
:1010EC000E7D3D7F111210FE7D407F1512111A7F6F
:0210FC000022D0
:10112D00EF644170241212DB7D3D7F1112111A7D87
:10113D00867F1712111A7D7F7F261210FE7FE87EA3
:0F114D000312000E12134280037FFF227F002245
:101342007F14121307EF540370077D037F141212E8
:01135200405A
:011353002277
:070003007D037F140212DFF0
:0E1376001210CC1200031213427F4102112DFF
:080C9C00824A0000824E0000B4
:1012F100758921758CB1758ADFD2A9D28C758DFA69
:06130100758BFAD28E226A
:03000B00020F3DA4
:100F3D00C0E0C0F0C083C082C0D075D000C000C07A
:100F4D0001C002C003C004C005C006C007758CB146
:100F5D00758ADF784FE22401F218E23400F2784A04
:100F6D0008E2FF2401F218E2FE3400F2C3EF94040C
:100F7D00EE940040097855E2B401031213AAD0078C
:100F8D00D006D005D004D003D002D001D000D0D0EF
:090F9D00D082D083D0F0D0E03204
:10128D00D3EF9400EE940040147DDC7C00ED1D70D6
:0D129D00011CED4C70F7EF1F70E61E80E3A2
:0112AA002221
:100CA400A032560000000000000000000000000018
:100CB4000000000000000000000000000000000030
:100CC4000000000000000000000000000000000020
:100CD4000000000000815300818800815500815488
:010CE400000F
:0E138400C2ACC2998F993099FDC299D2AC22A9
:10115C007850EBF208EAF208E9F2AF051DEF601ADD
:10116C007850E2FB0808E2F92401F218E2FA3400A4
:0B117C00F212011CFF12138480E0221D
:03002300020DE6E5
:0D0DE600C0E0C0D075D000C000C006C0073E
:100DF300309861C298784AE4F208F2AF997855E2E4
:100E0300FE7012EFB4FE0E7401F27853E4F27888A8
:100E130074FFF2803FEE6401703A7853E2FE04F20D
:100E230074562EF8EFF27853E2FFB4020E7857E2CD
:100E3300FE18E22E24037888F2800E7888E2FEEF13
:100E4300C39E400578547401F27853E2C3942D4055
:040E530003742DF205
:0B0E5700D007D006D000D0D0D0E03291
:0613CC00759850D2AC221E
:100B56000212ABE493A3F8E493A34003F68001F2F8
:100B660008DFF48029E493A3F85407240CC8C333A0
:100B7600C4540F4420C8834004F456800146F6DF6F
:100B8600E4800B0102040810204080900C60E47E93
:100B9600019360BCA3FF543F30E509541FFEE49364
:100BA600A360010ECF54C025E060A840B8E493A32B
:100BB600FAE493A3F8E493A3C8C582C8CAC583CA56
:100BC600F0A3C8C582C8CAC583CADFE9DEE780BE0E
:010CE500000E
:10002600E709F608DFFA8046E709F208DFFA803EBC
:1000360088828C83E709F0A3DFFA8032E309F608A9
:10004600DFFA8078E309F208DFFA807088828C8311
:10005600E309F0A3DFFA806489828A83E0A3F608C5
:10006600DFFA805889828A83E0A3F208DFFA804C9F
:1000760080D280FA80C680D4806980F28033801076
:1000860080A680EA809A80A880DA80E280CA8033DF
:1000960089828A83ECFAE493A3C8C582C8CCC58357
:1000A600CCF0A3C8C582C8CCC583CCDFE9DEE78027
:1000B6000D89828A83E493A3F608DFF9ECFAA9F0A6
:1000C600EDFB2289828A83ECFAE0A3C8C582C8CCFC
:1000D600C583CCF0A3C8C582C8CCC583CCDFEADE15
:1000E600E880DB89828A83E493A3F208DFF980CC77
:1000F60088F0EF60010E4E60C388F0ED2402B40470
:100106000050B9F582EB2402B4040050AF23234516
:06011600822390007673C5
:10011C00BB010689828A83E0225002E722BBFE02E1
:09012C00E32289828A83E4932214
:10013500BB010CE58229F582E5833AF583E022507F
:1001450006E92582F8E622BBFE06E92582F8E222C9
:0D015500E58229F582E5833AF583E49322E3
:10016200BB010689828A83F0225002F722BBFE017C
:02017200F32276
:10017400F8BB010DE58229F582E5833AF583E8F0C1
:10018400225006E92582C8F622BBFE05E92582C86D
:02019400F22255
:10019600BB0110E58229F582E5833AF583E0F5F0A7
:1001A600A3E0225009E92582F886F008E622BBFE84
:1001B6000AE92582F8E2F5F008E222E5832AF583CA
:0801C600E993F5F0A3E993228F
:1001CE00BB010A89828A83F0E5F0A3F0225006F77C
:0F01DE0009A7F01922BBFE06F3E5F009F3192279
:1001ED00D083D082F8E4937012740193700DA3A3A1
:1001FD0093F8740193F5828883E473740293B5F0D8
:0D020D00067403936860E9A3A3A3A380D83F
:10021A00EF4E6012EF60010EEDBB010B89828A83FB
:10022A00F0A3DFFCDEFA2289F05007F709DFFCA908
:0C023A00F022BBFEFCF309DFFCA9F0225F
:00000001FF
